:020000040800F2
:10000000B820002045010008CD430008CF43000878
:10001000D3430008D7430008DB430008000000007A
:10002000000000000000000000000000DF430008A6
:10003000E143000800000000E3430008E543000836
:100040005F0100085F0100085F0100085F01000810
:100050005F0100085F0100085F0100085F01000800
:100060005F0100085F0100085F0100085F010008F0
:100070005F0100085F0100085F0100085F010008E0
:100080005F0100085F0100085F0100085F010008D0
:100090005F0100085F0100085F0100085F010008C0
:1000A0005F0100085F0100085F0100085F010008B0
:1000B0009F4100085F0100085F0100085F01000820
:1000C0005F0100085F0100085F0100085F01000890
:1000D0005F010008215700085F0100085F01000868
:1000E0005F0100085F0100085F0100085F01000870
:1000F0005F0100085F0100085F0100085F01000860
:100100005F0100085F0100085F0100085F0100084F
:100110005F0100085F0100085F0100085F0100083F
:100120005F0100085F0100085F0100085F0100082F
:10013000DFF80CD006F0CCFD00480047E73F000890
:10014000B82000200648804706480047FEE7FEE743
:10015000FEE7FEE7FEE7FEE7FEE7FEE7FEE7FEE777
:1001600047020008310100080CB500200190009002
:100170006C48006840F480306A49086000BF6948F4
:10018000006800F4003000900198401C0190009835
:1001900018B90198B0F5A06FF1D16248006800F479
:1001A000003010B10120009001E000200090009884
:1001B000012843D15C48006840F010005A490860AB
:1001C0000846006820F0030008600846006840F018
:1001D0000200086053484068524948600846406839
:1001E00048600846406840F48060486008464068BF
:1001F00020F47C1048600846406840F4E8104860ED
:100200000846006840F08070086000BF45480068FC
:1002100000F000700028F9D04248406820F0030048
:10022000404948600846406840F00200486000BF0E
:100230003C48406800F00C000828F9D10CBD10B50E
:10024000FFF792FF10BD10B53648006840F001007E
:1002500034490860084640683449084031494860DC
:1002600008460068324908402E4908600846006880
:1002700020F4802008600846406820F4FE004860B2
:100280004FF41F008860FFF7DAFF4FF00060294944
:10029000086010BD10B5002100200022214B5B68D2
:1002A00003F00C0121B1042906D0082928D107E068
:1002B000214B224C236027E01F4B204C236023E07E
:1002C000184B5B6803F47010164B5B6803F48032C4
:1002D000022303EB904022B9194B4343174C236090
:1002E0000DE0104B5B6803F4003323B1144B434320
:1002F000124C236003E0104B4343104C236003E097
:100300000D4B0E4C236000BF00BF064B5B68C3F370
:1003100003130C4CE15C094B1B68CB40074C23607A
:1003200010BD000000100240002002400000FFF855
:10033000FFFFF6FE08ED00E000127A00000000204A
:1003400000093D00040000204B4901434B4A116065
:10035000704770B5002100230F22C47804B3474CC6
:10036000246804F4E064C4F5E064210AC1F10403E4
:10037000CA40447804FA03F1847814402143090107
:100380003F4C0678A155047804F01F050124AC40C9
:1003900005786D11AD0005F1E025C5F8004109E0D3
:1003A000047804F01F050124AC40364D0678761120
:1003B00045F8264070BD344A0A4002432F4B1B1FAC
:1003C0001A60704739B12D4A121D126802432B4B37
:1003D0001B1D1A6006E0294A121D12688243274B32
:1003E0001B1D1A60704710B5044601202749088379
:1003F000042C08D14FF0E020006940F004004FF0D9
:10040000E021086107E04FF0E020006920F00400DF
:100410004FF0E02108611E4800681C4908601C4834
:10042000001D006848601A4808300068886006228D
:100430000C31184800F076FB1448C08913498989AB
:1004400040EA014011490968884214D10F48418AA5
:10045000008A41EA00400D49496888420BD10B48A7
:10046000C18A808A41EA004008498968884202D1ED
:1004700000200649088310BD0000FA050CED00E0DD
:1004800000E400E080E100E080FFFF1F4009002061
:10049000E8F7FF1F00B0000801460020FE4A106880
:1004A00000F03800084310607047FB49096821F0EC
:1004B0000801F94A1160114609680143116070474B
:1004C000F549096821F01001F34A116011460968E5
:1004D000014311607047F148EF494860F0484860B7
:1004E0007047EE48EC494860ED4848607047EA487C
:1004F000006940F08000E84908617047E6480069FB
:1005000040F08000E449086170470420E249C9686E
:1005100001F0010109B101200EE0DF49C96801F0D5
:10052000040109B1022007E0DB49C96801F01001AC
:1005300009B1032000E00420704700B502460423FF
:10054000FFF7E3FF034603E0FFF7DFFF0346521E1A
:10055000012B01D1002AF7D102B90523184600BDAD
:1005600030B5044604254FF43020FFF7E6FF05467A
:10057000042D17D1C848006940F00200C64908613F
:1005800008464461006940F0400008614FF43020A3
:10059000FFF7D3FF0546C048006941F6FD710840EA
:1005A000BD490861284630BD10B504244FF4302001
:1005B000FFF7C3FF0446042C16D1B748006940F08A
:1005C0000400B54908610846006940F04000086130
:1005D0004FF43020FFF7B1FF0446AF48006941F601
:1005E000FB710840AC490861204610BD00B50246C9
:1005F0000423FFF78AFF034603E0FFF786FF034665
:10060000521E012B01D1002AF7D102B90523184649
:1006100000BD10B504244FF43020FFF7E7FF044677
:10062000042C16D19C48006940F004009A490861E6
:100630000846006940F0400008614FF43020FFF7A1
:10064000D5FF04469448006941F6FB710840924981
:100650000861204610BD00208F49C96901F00201E0
:1006600009B1012000E00020704730B5A525042421
:10067000FFF7F1FF00B100254FF43020FFF75DFFD9
:100680000446042C3AD185488349886084488860B0
:100690000846006940F0200008610846006940F003
:1006A000400008614FF43020FFF747FF0446042C58
:1006B0001BD17948006941F6DF710840764908612D
:1006C0000846006940F01000086176480580E002A5
:1006D000FFF733FF0446052C10D06F48006941F640
:1006E000EF7108406C49086108E0052C06D06A48A3
:1006F000006941F6EF71084067490861204630BD46
:1007000078B506460C46042500200090E802FFF765
:1007100014FF0546042D24D15F48006940F0010014
:100720005D4908613480E802FFF707FF0546042DA4
:1007300010D1B01C0090200C00990880E802FFF74F
:10074000FCFE05465448006941F6FE7108405249D6
:10075000086106E05048006941F6FE7108404E49C4
:100760000861284678BD70B504460D460426F0029F
:10077000FFF7E3FE0646042E11D14748006940F01A
:100780000100454908612580F002FFF7D6FE0646C4
:100790004148006941F6FE7108403F490861304612
:1007A00070BD70B505460E460424E002FFF7C5FE95
:1007B0000446042C17D13948374988603848886086
:1007C0000846006940F0100008612E80E002FFF743
:1007D000B4FE0446052C06D02F48006941F6EF719F
:1007E00008402D490861204670BD2DE9F0430446BC
:1007F0004FF6FF763746B046B1460425E443E6B2ED
:10080000C4F30727C4F307484FEA1469E802FFF767
:1008100094FE0546042D49D120481F498860204890
:1008200088600846006940F010000861FF2E06D07D
:100830001C4808300680E802FFF77FFE0546042DBD
:1008400008D1FF2F06D017480A300780E802FFF7CB
:1008500074FE0546042D0AD1B8F1FF0F07D01148E8
:100860000C30A0F80080E802FFF767FE0546042D73
:100870000AD1B9F1FF0F07D00A480E30A0F8009056
:10088000E802FFF75AFE0546052D0FD00248006921
:1008900041F6EF71084007E0002002402301674560
:1008A000AB89EFCD00F8FF1FAB4908612846BDE8D2
:1008B000F08330B5054604244FF43020FFF73DFEA9
:1008C0000446042C41D1A548A3498860A448886007
:1008D0000846006940F0200008610846006940F0C1
:1008E000400008614FF43020FFF727FE0446042C37
:1008F00022D19948006941F6DF71084096490861A4
:100900000846006940F0100008611DB100209549BB
:10091000088002E0A520934908804FF43020FFF7BB
:100920000CFE0446052C10D08B48006941F6EF718F
:1009300008408949086108E0052C06D0864800690E
:1009400041F6DF71084084490861204630BDF0B5AA
:1009500005460E461746042480487F498860804833
:100960008860E002FFF7E9FD0446042C19D17A48BB
:10097000006940F010007849086147F0F800304302
:1009800028437849891C0880E002FFF7D6FD044619
:10099000052C06D07048006941F6EF7108406E4999
:1009A00008612046F0BD6C48C069800870476A48FD
:1009B000006A704700206849096801F0200109B108
:1009C000012000E00020704729B1634A1269024308
:1009D000614B1A6104E0604A126982435E4B1A61FE
:1009E000704701460020012908D15B4AD26902F014
:1009F00001020AB1012008E0002006E0564AD26850
:100A00000A400AB1012000E0002070475249C86046
:100A1000704704205049C96801F0010109B1012063
:100A20000EE04D49C96801F0040109B1022007E058
:100A30004949C96801F0100109B1032000E0042010
:100A40007047014608887047F0B505460E461746C0
:100A5000002407E036F814102846FFF784FEAD1C8A
:100A6000601C84B2BC42F5DBF0BD2DE9F047804646
:100A700089461646B8F1006F02D33B48804501D342
:100A8000BDE8F087A64200DC344645E000250BE0D7
:100A90000AEB0500354931F810004FF6FF71884226
:100AA00000D003E0681C85B2A542F1DB00BFA5427F
:100AB0001BDA4FF0006101EB8720FFF751FD0025A5
:100AC00008E039F8150005EB0A01284A22F8110060
:100AD000681C85B2A542F4DB4FF0006101EB872072
:100AE0008A142249FFF7B0FF04E0224649464046F7
:100AF000FFF7AAFFA64200D10FE07F1C4FF0000ACB
:100B000009EB4409A044301B86B2B6F5007F02DD34
:100B10004FF4007400E03446B8E700BFFFF7E7FC8D
:100B200000BFADE730B503460C461546002207E08E
:100B30001846FFF786FF24F812009B1C501C82B257
:100B4000AA42F5DB30BD13B50446012201A92046B7
:100B5000FFF78BFF1CBD000000200240230167450A
:100B6000AB89EFCD00F8FF1F000001085C090020F1
:100B700010B50446CC48844208D10121042000F07D
:100B80002FFD0021042000F02BFD46E0C7488442E1
:100B900008D10121082000F023FD0021082000F0E9
:100BA0001FFD3AE0C248844208D10121102000F024
:100BB00017FD0021102000F013FD2EE0BD488442F7
:100BC00008D10121202000F00BFD0021202000F0A1
:100BD00007FD22E0B848844208D10121402000F0FE
:100BE000FFFC0021402000F0FBFC16E0B3488442EB
:100BF00008D10121802000F0F3FC0021802000F0CA
:100C0000EFFC0AE0AE48844207D10121801500F0D4
:100C1000E7FC0021A01500F0E3FC10BD10B5012198
:100C2000084600F0DDFC0021012000F0D9FC10BDD9
:100C30002DE9F04102460025002600200023002473
:100C4000002791F803C00CF00F0591F803C00CF0D9
:100C5000100CBCF1000F03D091F802C04CEA05055E
:100C600091F800C0BCF1000F31D0146800202BE0D7
:100C70004FF0010C0CFA00F3B1F800C00CEA0306C7
:100C80009E4220D183004FF00F0C0CFA03F7BC43B7
:100C900005FA03FC4CEA040491F803C0BCF1280FE8
:100CA00006D14FF0010C0CFA00FCC2F814C00AE0A7
:100CB00091F803C0BCF1480F05D14FF0010C0CFABC
:100CC00000FCC2F810C0401C0828D1D31460B1F851
:100CD00000C0BCF1FF0F34DD546800202EE000F1AD
:100CE000080C4FF0010808FA0CF3B1F800C00CEA48
:100CF00003069E4221D183004FF00F0C0CFA03F73C
:100D0000BC4305FA03FC4CEA040491F803C0BCF1AF
:100D1000280F05D100F1080C08FA0CF8C2F814806D
:100D200091F803C0BCF1480F07D100F1080C4FF057
:100D3000010808FA0CF8C2F81080401C0828CED32D
:100D40005460BDE8F0814FF6FF710180022181708F
:100D50000421C17070470246002093680B400BB11C
:100D6000012000E0002070470146886880B270478B
:100D700002460020D3680B400BB1012000E00020A8
:100D800070470146C86880B2704701617047416191
:100D900070470AB1016100E041617047C16070476E
:100DA0004FF480320A438261816182618269826983
:100DB000704702460020434B18684FF68073184076
:100DC00040EA021008433F4B186070473E49C86133
:100DD0007047F0B50A46002300240021002500F0EA
:100DE0000046B6F1004F02D1364EF16901E0354EB2
:100DF0007168C0F3034583B200F44016B6F5401F96
:100E000008D121F070612F4E766826F070662D4F64
:100E10007E6012E000F48016B6F5801F06D103262E
:100E200006FA05F4A14341F0706106E0460D360173
:100E300003FA06F6B14341F0706122B1460D360166
:100E400003FA06F6314300F00046B6F1004F02D136
:100E50001C4EF16101E01B4E7160F0BD30B5002207
:100E60008B071C0F0F2303FA04F2164B08338C1068
:100E700053F824309343134C08348D1044F8253034
:100E800023468C1053F824308C07240F00FA04F406
:100E900023430C4C08348D1044F8253030BD0A49EA
:100EA000DC3108607047000000080140000C014080
:100EB000001001400014014000180140001C0140D6
:100EC00000200140000001400000204210B504460F
:100ED000F748844209D10121480500F08EFB00212A
:100EE0004FF4001000F089FB08E00121880500F0B4
:100EF00084FB00214FF4800000F07FFB10BD2DE942
:100F0000F04385B004460D460026B1460427DFF8BD
:100F1000A483A6884FF6C0700640684600F0D9FA50
:100F2000DDF80880E448B8FBF0F01FFA80F946EAE3
:100F30000906A68020884FF6FE7108402080002612
:100F4000DE49286888420CD828684000B8FBF0F0D9
:100F500087B2042F00DA04273E4309F10100208400
:100F600027E0E8884BF6FF71884206D1286800EB3D
:100F70004000B8FBF0F087B209E0286800EBC00140
:100F800001EB0010B8FBF0F087B247F48047C7F3DD
:100F90000B0008B947F0010747F4004006434FF43F
:100FA000967009FB00F04FF47A7190FBF1F0401C51
:100FB0002084A683208840F00100208026884FF6F8
:100FC000F5300640A8886989084306432680A88929
:100FD00029890843208105B0BDE8F08341F28831BA
:100FE0000160002181804BF6FF71C18000210181E9
:100FF00041814FF480418181704721B1028842F0E4
:101000000102028004E002884FF6FE731A4002805B
:10101000704721B1828842F40062828004E08288B5
:101020004FF2FF731A408280704721B1828842F4E8
:101030008052828004E082884EF6FF731A408280DC
:10104000704721B1028842F48072028004E0028875
:101050004FF6FF631A400280704721B1028842F4C4
:101060000072028004E002884FF6FF531A400280AB
:10107000704721B1028842F48062028004E0028855
:101080004FF6FF331A40028070470A4600218189DB
:101090004FF60173194002F0FE0319438181704736
:1010A00021B1828942F00102828104E082894FF6F7
:1010B000FE731A408281704721B1028842F04002DB
:1010C000028004E002884FF6BF731A400280704726
:1010D0001AB183880B43838002E083888B4383802B
:1010E0007047018270470146088AC0B2704712B14A
:1010F00041F0010102E04FF6FE7319400182704792
:1011000008B5024600200090009200980844009024
:101110000098008808BD21B1028842F40042028094
:1011200003E00288C2F30E0202807047B1F5006F3F
:1011300004D1028842F40062028004E002884FF287
:10114000FF731A4002807047B1F5005F04D1028836
:1011500042F40052028004E002884DF6FF731A4008
:101160000280704721B1028842F48052028004E07C
:1011700002884EF6FF731A4002807047B1F5006F87
:1011800004D1028842F40062028004E002884FF237
:10119000FF731A400280704721B1028842F020029A
:1011A000028004E002884FF6DF731A400280704725
:1011B0000146088B0012704721B1028842F01002EC
:1011C000028004E002884FF6EF731A4002807047F5
:1011D00021B9028842F08002028004E002884FF6C2
:1011E0007F731A4002807047B1F5804F05D0828B23
:1011F0004BF6FF731A40828303E0828B42F48042F5
:101200008283704770B50246002400250023002029
:10121000958A138B1B0445EA030626F07F4404EAF3
:1012200001068E4201D1012000E0002070BD10B502
:1012300001460020002300228B8A0A8B120443EA15
:10124000020424F07F4010BD0CB5024600200023AC
:101250000193009300920B0F019321F07F41019BBA
:101260001BB1009B1433009303E0090C009B18335F
:101270000093009B1B680B400BB1012000E0002095
:101280000CBD002221F07F42D3438382704730B5EA
:10129000024600200023948801F0E06504EA15432B
:1012A00021F07F41948A0C4054B14BB1012008E0F9
:1012B0000054004000127A0040420F00A086010056
:1012C000002030BD002221F07F42D343838270474B
:1012D000DF48006840F00100DD49086008464068CA
:1012E000DC490840DA49486008460068DA490840A5
:1012F000D74908600846006820F480200860084646
:10130000406820F4FE0048604FF41F00886070477A
:10131000CF49096821F48031CD4A1160114609682E
:1013200021F480211160B0F5803F03D0B0F5802F0B
:101330000ED106E0C649096841F48031C44A116003
:1013400007E0C349096841F4A021C14A116000E0E7
:1013500000BF00BF704710B50146002200230020E7
:101360004A11012A02D1BA4C236806E0022A02D1AE
:10137000B74C236A01E0B64C636A01F01F020124F6
:1013800094401C400CB1012000E0002010BD38B595
:10139000002000900024002500BF3120FFF7DBFF74
:1013A00005460098401C00900098B0F5A06F01D051
:1013B000002DF2D03120FFF7CEFF08B1012400E06C
:1013C0000024204638BD01460020A14A106820F0C4
:1013D000F80040EAC10010607047A04908607047FB
:1013E000024600209A4B586820F47C1042EA010320
:1013F0001843974B586070479849086670470146F4
:101400000020934A506820F0030008435060704762
:101410008F48406800F00C007047014600208C4A5D
:10142000506820F0F00008435060704701460020EB
:10143000874A506820F4E0600843506070470146D6
:101440000020834A506820F4605040EAC100506098
:10145000704729B17E4A527A02437D4B5A7204E0AA
:101460007B4A527A82437A4B5A7270477B49D83111
:101470000860704701460020754A506820F44040DB
:101480000843506070470021714A20321170704A41
:1014900082F82010012802D004280AD104E001219A
:1014A0006B4A2032117005E00521694A2032117023
:1014B00000E000BF00BF7047694908607047644999
:1014C000096A0143624A11627047654944390860FC
:1014D000704730B500210022002400235C4D6D6868
:1014E00005F00C0121B1042905D0082923D105E01C
:1014F0005C4D056022E05B4D05601FE0544D6D685A
:1015000005F47012524D6D6805F48034022505EB28
:1015100092421CB9544D554305600BE04C4D6D682B
:1015200005F400351DB1504D5543056002E04D4DA9
:101530005543056002E04B4D056000BF00BF444DC0
:101540006D6805F0F0010909484D6B5C0568DD40E8
:1015500045603F4D6D6805F4E061090A434D6B5CE1
:101560004568DD4085603A4D6D6805F46051C90AF3
:101570003E4D6B5C4568DD40C560354D6D6805F4DA
:101580004041890B3A4D6B5CC568B5FBF3F50561CD
:1015900030BD29B12E4A526902432D4B5A6104E0F5
:1015A0002B4A526982432A4B5A61704729B1284A13
:1015B00092690243264B9A6104E0254A926982436C
:1015C000234B9A61704729B1214AD2690243204BCB
:1015D000DA6104E01E4AD26982431D4BDA6170472A
:1015E00029B11B4AD2680243194BDA6004E0184A59
:1015F000D2688243164BDA60704729B1144A1269E7
:101600000243134B1A6104E0114A12698243104BE2
:101610001A61704712494039086070470F49C86421
:1016200070470B49C87170470948406A40F08070A4
:1016300007494862704701460020054A92680A40FF
:101640000AB1012000E0002070470149887270470C
:10165000001002400000FFF8FFFFF6FE00004242CB
:101660008004424200127A0000093D00140000206C
:101670002400002010B50446FE48844208D1012110
:10168000C014FFF7ADFF0021E014FFF7A9FFC4E08D
:10169000B4F1804F08D101210846FFF7AEFF0021C9
:1016A0000120FFF7AAFFB8E0F348844208D10121E6
:1016B0000220FFF7A2FF00210220FFF79EFFACE00F
:1016C000EE48844208D101210420FFF796FF002153
:1016D0000420FFF792FFA0E0E948844208D10121ED
:1016E0000820FFF78AFF00210820FFF786FF94E01B
:1016F000E448844208D101211020FFF77EFF002139
:101700001020FFF77AFF88E0DF48844208D10121EA
:101710002020FFF772FF00212020FFF76EFF7CE002
:10172000DA48844208D101214014FFF759FF002113
:101730006014FFF755FF70E0D548844209D10121BC
:10174000C804FFF74DFF00214FF40020FFF748FFCA
:1017500063E0D048844209D101210805FFF740FF2A
:1017600000214FF48010FFF73BFF56E0CA48844247
:1017700009D101214805FFF733FF00214FF4001084
:10178000FFF72EFF49E0C548844208D101214020DF
:10179000FFF733FF00214020FFF72FFF3DE0C04857
:1017A000844208D101218020FFF727FF00218020FB
:1017B000FFF723FF31E0BB48844208D101218015A7
:1017C000FFF71BFF0021A015FFF717FF25E0B64824
:1017D000844209D101210804FFF702FF00214FF4E0
:1017E0008030FFF7FDFE18E0B048844209D10121A6
:1017F0004804FFF7F5FE00214FF40030FFF7F0FE3C
:101800000BE0AB48844208D101218804FFF7E8FED1
:1018100000214FF48020FFF7E3FE10BD0022028874
:10182000944B98420ED0994B98420BD0B0F1804F18
:1018300008D0914B984205D0904B984202D0904BE3
:10184000984204D14FF68F731A404B881A438D4B40
:10185000984207D08C4B984204D04FF6FF431A4071
:10186000CB881A4302808B8883850B880385814B44
:1018700098420BD0854B984208D08B4B984205D0AC
:101880008A4B984202D08A4B984201D10B7A038648
:1018900001238382704770B5002400220023058C49
:1018A0004FF6FE7635400584028C8388048B4FF614
:1018B0008F752C40B51E2C400D882C43751E2A4078
:1018C0000D892A434D882A436A4DA8420BD06F4D9B
:1018D000A84208D0744DA84205D0744DA84202D049
:1018E000734DA84213D14FF6F7752A404D892A430C
:1018F0004FF6FB752A408D882A434FF6FF652B4033
:101900004FF6FF552B408D892B43CD892B43838088
:101910000483CD888586028470BD70B500240022C2
:101920000023058C4FF6EF7635400584028C8388C2
:10193000048B48F6FF752C404FF6FF452C400D8870
:101940004FF6FF7606EA05252C434FF6DF752A4051
:101950000D8906EA05152A434D8806EA05152A432E
:10196000444DA84202D0494DA8421DD14FF67F7583
:101970002A404D894FF6FF7606EA05152A434FF6B1
:10198000BF752A408D8806EA05152A434FF6FF35B4
:101990002B404FF2FF752B408D8906EA85052B43BE
:1019A000CD8906EA85052B4383800483CD8805878E
:1019B000028470BD70B5002400220023058C4FF610
:1019C000FF6635400584028C8388848B4FF68F75C3
:1019D0002C404FF6FC752C400D882C434FF6FF55DC
:1019E0002A400D894FF6FF7606EA05252A434D88E1
:1019F00006EA05252A431F4DA84202D0234DA842DE
:101A00001DD14FF2FF752A404D894FF6FF7606EA49
:101A100005252A434FF6FF352A408D8806EA05251D
:101A20002A434EF6FF752B404DF6FF752B408D89EE
:101A300006EA05152B43CD8906EA05152B4383805D
:101A40008483CD888587028470BD70B50022002311
:101A50000024058C4EF6FF7635400584038C84887F
:101A6000828B48F6FF752A404FF6FF452A400D88C5
:101A700020E00000002C014000040040000800406D
:101A8000000C0040001000400014004000340140F1
:101A9000004C01400050014000540140001800403B
:101AA000001C004000200040004001400044014074
:101AB000004801404FF6FF7606EA05252A434DF619
:101AC000FF752B400D8906EA05352B434D8806EA44
:101AD00005352B43FA4DA84202D0FA4DA84208D151
:101AE0004BF6FF752C408D894FF6FF7606EA85157B
:101AF0002C4384808283CD88A0F84050038470BD3D
:101B0000828B4FF2FF331A408283828B4FF6FF7332
:101B100003EA01231A4382837047F0B50C46154649
:101B2000002200210026078C4EF6FF7C07EA0C07F6
:101B30000784828B018C4FF6FF7707EA043640F664
:101B4000FF473A404FF6FF7707EA05273A434FF63B
:101B5000FF7707EA03373A43D94FB8420ED0D94F3F
:101B6000B8420BD0B0F1804F08D0D74FB84205D063
:101B7000D64FB84202D0D64FB84206D14DF6FF77C5
:101B8000394046F48057394305E047F6FF5739405E
:101B900044F48057394382830184F0BD828B4FF631
:101BA000F3731A408283828B0A4382837047F0B5B5
:101BB0000C461546002200210026078C4FF6FF6CCC
:101BC00007EA0C070784828B018C4FF6FF7707EA40
:101BD00004264FF60C773A404FF6FF7707EA0317D3
:101BE0002F433A43B64FB8420ED0B64FB8420BD04F
:101BF000B0F1804F08D0B44FB84205D0B34FB842CF
:101C000002D0B34FB84206D14FF6FF57394046F4E1
:101C10008077394305E04FF2FF57394044F480772D
:101C2000394382830184F0BD028B4FF2FF331A40A7
:101C30000283028B4FF6FF7303EA01231A430283E8
:101C40007047F0B50C461546002200210026078C8F
:101C50004FF6EF7C07EA0C070784028B018C4FF6E6
:101C6000FF7707EA041640F6FF473A404FF6FF7742
:101C700007EA03373A434FF6FF7707EA05273A4367
:101C80008F4FB8420ED08F4FB8420BD0B0F1804F7B
:101C900008D08D4FB84205D08C4FB84202D08C4F3F
:101CA000B84206D14FF6DF77394046F01007394386
:101CB00005E04FF65F77394044F01007394302835F
:101CC0000184F0BD028B4FF6F3731A400283028B3E
:101CD0000A4302837047F0B50C46154600220021E6
:101CE000068C4FF6FE773E400684028B018C4FF641
:101CF0000C7632407E1C06EA03162E433243704EA9
:101D0000B0420ED06F4EB0420BD0B0F1804F08D031
:101D10006D4EB04205D06D4EB04202D06C4EB04216
:101D200006D14FF6FD76314044F00106314305E01F
:101D30004FF6F576314044F00106314302830184C9
:101D4000F0BD70B505460C465D4885420ED05D4835
:101D500085420BD0B5F1804F08D05B48854205D055
:101D60005A48854202D05A48854200D100E000BF5F
:101D7000208850B92389A28861882846FFF7ABFFE5
:101D8000E1882846FFF79EFF25E0208804280AD135
:101D90002389A28861882846FFF753FFE1882846F7
:101DA000FFF742FF17E0208808280AD12389A2887C
:101DB00061882846FFF7FBFEE1882846FFF7EEFE24
:101DC00009E02389A28861882846FFF7A6FEE188FA
:101DD0002846FFF795FE70BD2DE9F04105460C46FB
:101DE00000260127608808B9022600E00026A088A6
:101DF000012801D1022700E001272088A0B923890A
:101E0000A28861882846FFF766FFE1882846FFF729
:101E100059FF23893A4631462846FFF712FFE188E9
:101E20002846FFF701FF13E02389A288618828462E
:101E3000FFF707FFE1882846FFF7F6FE23893A46B9
:101E400031462846FFF747FFE1882846FFF73AFF6B
:101E5000BDE8F0810A884B881A438B881A43CB88E7
:101E60001A430B891A434B891A438B891A43A0F8EA
:101E7000442070474FF6FF71818000210180C180AE
:101E80004180017270470021018041808180C180C2
:101E9000018141818181C1817047002101804180A0
:101EA000012181800021C1800181704700210180D2
:101EB00041808180C1800181418181817047000022
:101EC000002C0140003401400004004000080040A4
:101ED000000C004021B1028842F00102028004E0BF
:101EE00002884FF6FE731A400280704731B1B0F895
:101EF000442042F40042A0F8442005E0B0F8442019
:101F0000C2F30E02A0F8442070471AB183890B4334
:101F1000838102E083898B4383817047818270478C
:101F200041EA0203A0F8483070471AB183890B4395
:101F3000838102E083898B438381704701894FF657
:101F4000F8721140018170470A46002101894FF65D
:101F50008F73194011430181704730B504460D4617
:101F600029462046FFF7F0FF208940F00700208136
:101F700030BD2DE9F04104460D4616461F46602D42
:101F800006D13B46012231462046FFF75AFE05E0C6
:101F90003B46012231462046FFF79DFE294620465A
:101FA000FFF7D2FF208940F007002081BDE8F081D3
:101FB00030B50C4600210189C9B24FF6FF7505EA1C
:101FC0000325154325432943018130BD2DE9F04107
:101FD00005460E4617469846002443463A46314683
:101FE0002846FFF7E5FF2C894FF6F870044044F0CF
:101FF00007044FF68F70044044F070042C81BDE854
:10200000F081F0B504460D4616461F463B46324663
:1020100029462046FFF7CCFF208940F480402081EC
:10202000F0BD0185828270470A46002101884FF683
:102030008F731940114301807047F0B50C46154667
:102040001E460021002200230189028B038C4FF6DB
:10205000F877394021434FF6FC473A4040F20117E8
:102060003A434FF6DD773B404FF6FF7707EA061716
:102070002F433B43018102830384F0BD0A460021C4
:10208000018B4FF68F7319401143018370470A4645
:102090000021018B48F6FF7319404FF6FF7303EAE6
:1020A00002231943018370470A460021818B4FF6B2
:1020B0008F7319401143818370470A460021818B39
:1020C00048F6FF7319404FF6FF7303EA02231943E2
:1020D0008183704721B1028842F08002028004E0CF
:1020E00002884FF67F731A400280704721B18288C0
:1020F00042F00402828004E082884FF6FB731A40AB
:102100008280704721B1828842F00802828004E018
:1021100082884FF6F7731A408280704721B1828817
:1021200042F00102828004E082884FF6FE731A407A
:10213000828070470A460021018B4FF6F7731940E1
:102140001143018370470A460021018B4FF2FF7350
:1021500019404FF6FF7303EA0223194301837047C6
:102160000A460021818B4FF6F77319401143818392
:1021700070470A460021818B4FF2FF7319404FF6DA
:10218000FF7303EA02231943818370470A46002143
:10219000018B4FF6FB7319401143018370470A46C8
:1021A0000021018B4FF6FF3319404FF6FF7303EA0E
:1021B00002231943018370470A460021818B4FF6A1
:1021C000FB7319401143818370470A460021818BBC
:1021D0004FF6FF3319404FF6FF7303EA022319430A
:1021E000818370470A460021018B4FF67F731940A7
:1021F0001143018370470A460021018BC1F30E0190
:102200004FF6FF7303EA02231943018370470A461E
:102210000021818B4FF67F731940114381837047F2
:102220000A460021818BC1F30E014FF6FF7303EACA
:1022300002231943818370470A460021018C4FF61F
:10224000FD7319401143018470470A460021018C37
:102250004FF6F77319401143018470470A46002175
:10226000018C4FF6DF7319404FF6FF7303EA021338
:102270001943018470470A460021018C4FF67F7391
:1022800019404FF6FF7303EA0213194301847047A4
:102290000A460021018C4FF6FF5319404FF6FF7399
:1022A00003EA02231943018470470A460021018C86
:1022B0004FF2FF7319404FF6FF7303EA02231943ED
:1022C000018470470A460021018C4DF6FF731940C6
:1022D0004FF6FF7303EA023319430184704730B5A8
:1022E000002301248C40A3B2048C9C430484048CFE
:1022F00002FA01F5ADB22C43048430BD30B50023A1
:1023000004248C40A3B2048C9C430484048C02FA01
:1023100001F5ADB22C43048430BD70B503460020F6
:1023200000241846183001258D40ACB21D8CA54301
:102330001D8409B1082909D100EB6100056825F069
:10234000700505600568154305600EE00D1FC5F3B7
:102350004E052844056825F4E045056005684FF6FC
:10236000FF7606EA02263543056070BD21B102887A
:1023700042F00202028004E002884FF6FD731A4028
:102380000280704721B1028842F00402028004E01A
:1023900002884FF6FB731A400280704721B1828891
:1023A00042F08002828004E082884FF67F731A40F8
:1023B0008280704702884FF6F7731A4002800288C5
:1023C0000A430280704782884FF68F731A408280DA
:1023D00082880A438280704702894FF6F8731A4058
:1023E000028102890A430281704702894FF67F7396
:1023F0001A40028102890A43028170478184704732
:102400008185704781867047018770478187704753
:10241000A0F84010704702884FF6FF431A40028030
:1024200002880A43028070470146888E7047014641
:10243000088F70470146888F70470146B1F8400009
:1024400070470146888C70470146088D70470246E8
:102450000020138A0B400BB1012000E000207047E0
:10246000CA430282704730B5024600200023002490
:10247000158A05EA0103958905EA010413B10CB137
:10248000012000E0002030BDCA43028270470000F6
:1024900010B50446FB48844209D101218803FFF7A7
:1024A0009FF800214FF48040FFF79AF832E0F64899
:1024B000844209D101214804FFF79FF800214FF41D
:1024C0000030FFF79AF825E0F048844209D1012155
:1024D0008804FFF792F800214FF48020FFF78DF871
:1024E00018E0EB48844209D10121C804FFF785F8C0
:1024F00000214FF40020FFF780F80BE0E54884420C
:1025000008D101210805FFF778F800214FF4801069
:10251000FFF773F810BD2DE9F04786B005460E466B
:102520000024A24600BFA1460027B08900B100BF29
:102530002F462C8A4CF6FF700440F08804432C820E
:10254000AC894EF6F3100440B08831890843718994
:1025500008430443AC81AC8A4FF6FF400440B08985
:102560000443AC8201A8FEF7B4FFC648874202D1FB
:10257000DDF810A001E0DDF80CA0A88900F400400F
:1025800040B10AEBCA0000EB0A1031684900B0FB09
:10259000F1F807E00AEBCA0000EB0A103168890085
:1025A000B0FBF1F86420B8FBF0F0040120096421CD
:1025B00001FB1089A88900F4004040B1322000EBF3
:1025C000C900B0FBF1F000F00700044308E032203E
:1025D00000EB09106421B0FBF1F000F00F000443A0
:1025E0002C8106B0BDE8F0874FF416510160002140
:1025F0008180C18001810C2141810021818170474E
:1026000010B502460020108A4FF2FF0318400B88D5
:102610004C8823438C882343CC882343184310825F
:1026200010BD0021018041808180C180704721B1AF
:10263000828942F40052828104E082894DF6FF7360
:102640001A4082817047F0B5034600240026002519
:10265000002040F66A17B94200D100BF1846C1F306
:10266000421401F01F06012707FA06F5012C01D1DB
:102670000C3004E0022C01D1103000E014301AB10B
:1026800007682F43076002E00768AF430760F0BDAB
:102690001AB1838A0B43838202E0838A8B4383824D
:1026A0007047028A4FF6F0731A400282028A0A4388
:1026B0000282704782894FF2FF731A4082818289B9
:1026C0000A438281704721B1828942F002028281ED
:1026D00004E082894FF6FD731A4082817047028AB6
:1026E0004FF6DF731A400282028A0A430282704761
:1026F00021B1028A42F48042028204E0028A4BF64F
:10270000FF731A4002827047C1F30802828070474B
:1027100001468888C0F308007047818941F00101B3
:1027200081817047028BD2B20283028B42EA01227E
:1027300002837047028B02F47F420283028B0A43BA
:102740000283704721B1828A42F02002828204E033
:10275000828A4FF6DF731A408282704721B1828AE3
:1027600042F01002828204E0828A4FF6EF731A4030
:102770008282704721B1828A42F00802828204E09C
:10278000828A4FF6F7731A408282704721B182899C
:1027900042F40042828103E08289C2F30E02828108
:1027A000704721B1828A42F40062828204E0828A08
:1027B0004FF2FF731A4082827047828A4FF6FB7392
:1027C0001A408282828A0A438282704721B1828AB9
:1027D00042F00202828204E0828A4FF6FD731A40C0
:1027E0008282704702460020B1F5007F00D100BF11
:1027F00013880B400BB1012000E00020704701F46A
:102800000072B2F5007F00D100BFCA43028070475A
:1028100070B50246002400230025002040F66A1609
:10282000B14200D100BFC1F3421501F01F030126E0
:1028300006FA03F3012D02D19689334006E0022DFA
:1028400002D1168A334001E0968A33400C120126E9
:1028500006FA04F41688344013B10CB1012000E0EC
:10286000002070BD10B50022002340F66A14A1427A
:1028700000D100BF0A1201249440A3B2DC430480BB
:1028800010BD0000003801400044004000480040F6
:10289000004C004000500040F8B500240025FE48E0
:1028A000007810B9FD4802F0D2FAFC48C08800F563
:1028B000FA6086B2F9484079082861D2DFE800F072
:1028C0006004111E2B384653F3490978C91ECBB258
:1028D000682101EB0411C8B20122002101F04BFF75
:1028E0004EE0ED490978C91ECBB2682101EB041115
:1028F000C8B20222002101F03EFF41E0E64909781A
:10290000C91ECBB2682101EB0411C8B20322002119
:1029100001F031FF34E0E0490978C91ECBB26821EB
:1029200001EB0411C8B20422002101F024FF27E0CA
:10293000D9490978C91ECBB2611DCAB2682101EB21
:102940000411C8B2002101F016FF19E0D24909783C
:10295000C91ECBB2682101EB0411C8B206220021C6
:1029600001F009FF0CE0CC490978C91ECBB26821FF
:1029700001EB0411C8B20722002101F0FCFE00BFE8
:1029800000BF0025C54880780A2190FBF1F0303067
:10299000C7B2C1480078001FC0B22A466D1C009023
:1029A000D00002233A46194601F047FEBB48807822
:1029B0000A2190FBF1F201FB12003030C7B2B64899
:1029C0000078001FC0B22A466D1C0090D000022380
:1029D0003A46194601F031FE00202A466D1C00904F
:1029E000D00002233A22194601F027FEAB48407876
:1029F0000A2190FBF1F03030C7B2A7480078401FA1
:102A0000C0B22A466D1C0090D00002233A461946F7
:102A100001F013FEA14800780A2190FBF1F030305C
:102A2000C7B29D480078801FC0B22A466D1C009036
:102A3000D00002233A46194601F0FFFD974800787E
:102A40000A2190FBF1F201FB12003030C7B292482C
:102A50000078801FC0B22A466D1CD1060090080E77
:102A600002233A46194601F0E8FDF8BD38B50024C6
:102A700003F0F1FB8A48006870B38948006889490F
:102A80000988884228DC88480078012824D1002061
:102A90002146621CD4B2C9060090080E02232022EF
:102AA000062101F0CAFD00202146621CD4B2C906ED
:102AB0000090080E02232022062101F0BEFD002016
:102AC0002146621CD4B2C9060090080E02232022BF
:102AD000062101F0B2FD45E0714800684FF47A71BB
:102AE00090FBF1F201FB1200642190FBF1F0303019
:102AF000C5B200202146621CD4B2C9060090080E5F
:102B000002232A46062101F098FD654800686421E9
:102B100090FBF1F201FB12000A2190FBF1F0303042
:102B2000C5B200202146621CD4B2C9060090080E2E
:102B300002232A46062101F080FD594800680A2137
:102B400090FBF1F201FB12003030C5B200202146AB
:102B5000621CD4B2C9060090080E02232A46062140
:102B600001F06BFD38BD38B50A2402F035FB4F4942
:102B700008800846B0F900004D490988884206DD02
:102B80004A48B0F900004B490988884234DB46487E
:102B90000078012830D100202146621CD4B2C90639
:102BA0000090080E02232022194601F046FD002065
:102BB0002146621CD4B2C9060090080E02232022CE
:102BC000194601F03AFD00202146621CD4B2C90624
:102BD0000090080E02232022194601F02EFD00204D
:102BE0002146621CD4B2C9060090080E022320229E
:102BF000194601F022FD4EE02C48B0F90000642196
:102C000090FBF1F03030C5B200202146621CD4B2F6
:102C1000C9060090080E02232A46194601F00DFD50
:102C20002248B0F90000642190FBF1F201FB120090
:102C30000A2190FBF1F03030C5B200202146621C21
:102C4000D4B2C9060090080E02232A46194601F0A4
:102C5000F4FC00202146621CD4B2C9060090080E84
:102C600002232E22194601F0E8FC1048B0F90000BA
:102C70000A2190FBF1F201FB12003030C5B20020B6
:102C80002146621CD4B2C9060090080E02232A46CF
:102C9000194601F0D2FC38BD28000020DA080020D7
:102CA000600000204E00002054000020480000205A
:102CB00052000020500000200EB5FE480088ADF8FC
:102CC0000000FD480088ADF80200FC480088ADF81F
:102CD0000400FB480088ADF80600FA480088ADF80B
:102CE0000800F9480088ADF80A0006226946F7484E
:102CF000FDF7BBFE322001F038FE0EBD00B585B0F9
:102D000006226946F148FDF70DFFBDF80000E949CC
:102D10000880BDF80200E8490880BDF80400E749D2
:102D20000880BDF80600E6490880BDF80800E549BE
:102D30000880BDF80A00E449088005B000BD1CB554
:102D400005226946E1482038FDF7ECFE00208DF8A9
:102D50000500DFA1684603F077FB68B90522DCA116
:102D6000DA482038FDF781FE322001F0FEFDFFF742
:102D7000A3FF322001F0F9FDFFF7C0FF1CBD38B5FD
:102D80000B240A23D44AD549D54802F00CFCD34879
:102D90000068D4490860D1480068D3490860D04829
:102DA0000068D24908600021CF48006803F012FD96
:102DB00005D2CD48006880F00040CB490860002172
:102DC000CA48006803F006FD05D2C848006880F0D4
:102DD0000040C6490860C448006803F0B5FC80B2F2
:102DE000BE2806DAC148006803F0AEFC80B2BE28F7
:102DF00003DB0120BE49087008E00020BC490870D0
:102E00000520BC4908700020BB4908700021B54866
:102E1000006803F0E9FC28D2B849B248006803F022
:102E2000BCFB05464FF0814103F0DEFC1DD8B448E1
:102E30000078012819D10020B14908709D48008808
:102E40004EF66021884204DA9A480088401C99496D
:102E50000880AC48008897490988884205D0954881
:102E60000088A8490880FFF727FF00219D480068D7
:102E700003F0B0FC13D29B48006880F000409949F1
:102E800008609E499748006803F087FB05464FF0AD
:102E9000814103F0A9FC02D80120994908708548B6
:102EA000008842F20F71884274DD82480088491C14
:102EB00090FBF1F03030C5B200202146621C94B284
:102EC000C9060090080E02232A46062101F0B5FB30
:102ED0007848008842F2107190FBF1F201FB120079
:102EE0004FF47A7190FBF1F03030C5B200202146EA
:102EF000621C94B2C9060090080E02232A460621DD
:102F000001F09BFB6B4800884FF47A7190FBF1F263
:102F100001FB1200642190FBF1F03030C5B20020BB
:102F20002146621C94B2C9060090080E02232A466C
:102F3000062101F082FB5F480088642190FBF1F2DA
:102F400001FB12000A2190FBF1F03030C5B20020E5
:102F50002146621C94B2C9060090080E02232A463C
:102F6000062101F06AFB534800880A2190FBF1F228
:102F700001FB12003030C5B200202146621C94B221
:102F8000C9060090080E02232A46062101F055FBCF
:102F90009DE1FFE747480088B0F57A7F6CDB0020B1
:102FA0002146621C94B2C9060090080E022320221A
:102FB000062101F042FB3F48008842F2107190FB6D
:102FC000F1F201FB12004FF47A7190FBF1F0303016
:102FD000C5B200202146621C94B2C9060090080EBA
:102FE00002232A46062101F028FB324800884FF4CC
:102FF0007A7190FBF1F201FB1200642190FBF1F079
:103000003030C5B200202146621C94B2C90600903F
:10301000080E02232A46062101F00FFB25480088EE
:10302000642190FBF1F201FB12000A2190FBF1F008
:103030003030C5B200202146621C94B2C90600900F
:10304000080E02232A46062101F0F7FA19480088E3
:103050000A2190FBF1F201FB12003030C5B20020D2
:103060002146621C94B2C9060090080E02232A462B
:10307000062101F0E2FA2AE10E48008863287DDD8E
:1030800000202146621C94B2C9060090080E02235B
:103090002022062101F0D1FA00202146621C94B2C0
:1030A000C9060090080E02232022062101F0C5FA6D
:1030B000004829E0460000204A0000204C00002083
:1030C0004E000020520000205000002020F0000898
:1030D000464459445A0000003400002030000020CB
:1030E0002C000020380000203C0000204000002080
:1030F0005700002058000020590000200000204107
:10310000440000206400002000884FF47A7190FB96
:10311000F1F201FB1200642190FBF1F03030C5B2F6
:1031200000202146621C94B2C9060090080E0223BA
:103130002A46062101F081FAFE480088642190FBAE
:10314000F1F201FB12000A2190FBF1F03030C5B220
:1031500000202146621C94B2C9060090080E02238A
:103160002A46062101F069FAF24800880A2190FBFC
:10317000F1F201FB12003030C5B200E00CE000209B
:103180002146621C94B2C9060090080E02232A460A
:10319000062101F052FA9AE0E6480088092851DD3C
:1031A00000202146621C94B2C9060090080E02233A
:1031B0002022062101F041FA00202146621C94B22F
:1031C000C9060090080E02232022062101F035FADC
:1031D000D8480088642190FBF1F201FB12000A211B
:1031E00090FBF1F03030C5B200202146621C94B251
:1031F000C9060090080E02232A46062101F01DFA96
:10320000CC4800880A2190FBF1F201FB120030301B
:10321000C5B200202146621C94B2C9060090080E77
:1032200002232A46062101F008FA00202146621CEA
:1032300094B2C9060090080E02232022062101F054
:10324000FCF944E000202146621C94B2C9060090BB
:10325000080E02232022062101F0EFF9002021466A
:10326000621C94B2C9060090080E02232022062197
:1032700001F0E3F9AF4800880A2190FBF1F201FB6D
:1032800012003030C5B200202146621C94B2C9063B
:103290000090080E02232A46062101F0CEF90020F4
:1032A0002146621C94B2C9060090080E0223202217
:1032B000062101F0C2F900202146621C94B2C90621
:1032C0000090080E02232022062101F0B6F938BD35
:1032D00038B599480078082803D09748007809281D
:1032E00079D196480088642190FBF1F03030C4B267
:1032F00091480078C01FC0B20223224604210090EA
:10330000302001F09AF98D480088642190FBF1F299
:1033100001FB12000A2190FBF1F03030C4B2864864
:103320000078C01FC0B2022322460421009038203A
:1033300001F083F9814800880A2190FBF1F201FB3A
:1033400012003030C4B27C480078C01FC0B20223E3
:10335000224604210090402001F06FF9784800884F
:10336000642190FBF1F03030C4B273480078083823
:10337000C0B20223224606210090302001F05DF900
:103380006F480088642190FBF1F201FB12000A21D2
:1033900090FBF1F03030C4B2674800780838C0B212
:1033A0000223224606210090382001F046F96448A5
:1033B00000880A2190FBF1F201FB12003030C4B208
:1033C0005D4800780838C0B20223224606210090EA
:1033D000402001F032F9584800780A283CD1594879
:1033E0000088642190FBF1F03030C4B2524800787C
:1033F0000938C0B20223224604210090302001F097
:103400001CF950480088642190FBF1F201FB120086
:103410000A2190FBF1F03030C4B2474800780938F7
:10342000C0B20223224604210090382001F005F9A1
:10343000444800880A2190FBF1F201FB1200303071
:10344000C4B23D4800780938C0B2022322460421A4
:103450000090402001F0F1F8374800780B2803D0A5
:10346000354800780C2873D137480088642190FBD8
:10347000F1F03030C4B2304800780A38C0B20223CC
:10348000224604210090302001F0D7F82E48008811
:10349000642190FBF1F201FB12000A2190FBF1F094
:1034A0003030C4B2244800780A38C0B20223224621
:1034B00004210090382001F0C0F81F4800780A3835
:1034C000C0B202232E2204210090402001F0B5F862
:1034D0001D4800880A2190FBF1F201FB12003030F8
:1034E000C4B2154800780A38C0B20223224604212B
:1034F0000090482001F0A1F814480088642190FB56
:10350000F1F03030C4B20C4800780B38C0B202235E
:10351000224606210090302001F08FF80B480088E9
:10352000642190FBF1F201FB12000A2190FBF1F003
:1035300030300EE046000020280000204A00002025
:103540004C0000204E0000205200002050000020BF
:103550002AE0C4B2FE4800780B38C0B202232246EB
:1035600006210090382001F068F8F94800780B38FF
:10357000C0B202232E2206210090402001F05DF807
:10358000F44800880A2190FBF1F201FB1200303070
:10359000C4B2EF4800780B38C0B20223224606219D
:1035A0000090482001F049F838BD38B500250120C9
:1035B00001F069FA0546012D73D1E5480078401CF9
:1035C000E3490870084600780A2825D100240CE059
:1035D00004F11E01CAB2202101EB0411C8B200237C
:1035E000194601F0C8F8601CC4B2042CF0DB0024BA
:1035F0000AE004F11A01CAB22107080E00230421CF
:1036000001F0B9F8601CC4B2022CF2DB0223D2A292
:103610000621002001F063F8CD4800780B283ED148
:1036200000240CE004F12201CAB2202101EB0411B4
:10363000C8B20023194601F09EF8601CC4B2042CE5
:10364000F0DB00240AE004F11A01CAB22107080ED7
:103650000023042101F08FF8601CC4B2022CF2DBBD
:1036600000240AE004F11C01CAB22107080E00235D
:10367000062101F080F8601CC4B2022CF2DB0020AD
:1036800002233A2204210090222000F0D6FF0020DD
:1036900002233A2206210090222000F0CEFFFFF7FD
:1036A00017FE022D7ED1AA48007801280DD1AF481F
:1036B000C088401CAD49C8800846C088642801D134
:1036C0000020C880A94801F03FFBA14800780228EB
:1036D0003CD1A6480079401CA449087108460079ED
:1036E0000D2801D101200871A048007904280BD0D1
:1036F0009E480079062807D09C480079092803D005
:103700009A4800790B2807D19848C0781E281ADDFE
:1037100001209649C87016E094480079022812D119
:1037200093480078012807D19048C0781D280ADD09
:1037300001208E49C87006E08C48C0781C2802DD44
:1037400001208A49C870894801F0FEFA8048007853
:1037500003284CD18548C078401C8449C87008466D
:103760000079012817D008460079032813D00846AD
:10377000007905280FD00846007907280BD00846A5
:103780000079082807D0084600790A2803D008469F
:1037900000790C2809D17548C078202824D101204F
:1037A000724900E0B7E0C8701EE070480079022856
:1037B00013D16F480078012807D16C48C0781E28C3
:1037C00012D101206949C8700EE06848C0781D28F0
:1037D0000AD101206549C87006E06448C0781F28F6
:1037E00002D101206149C870604801F0ADFA584823
:1037F000007804280DD15D484079401C5B49487130
:1038000008464079082801D101204871574801F045
:103810009BFA4F48007805280DD154488078401C09
:103820005249887008468078182801D10020887095
:103830004E4801F089FA4648007806280DD14B48D9
:103840004078401C49494870084640783C2801D1DE
:1038500000204870454801F077FA3D480078072875
:103860000DD142480078401C404908700846007855
:103870003C2801D1002008703C4801F065FA34482A
:10388000007808280BD13B4800883B490988401A3A
:10389000012804DD38480088401C374908802C483E
:1038A0000078092809D133480088B0F5967F04DAFA
:1038B00030480088401C2F490880254800780A2895
:1038C00008D12E480088C82804DA2C480088401CFB
:1038D0002A4908801E4800780B280BD11D48008813
:1038E00027490988401A012804DD25480088401C22
:1038F00023490880164800780C280AD1154800880A
:1039000040F2E731884204DA12480088401C11492D
:103910000880FFF7DDFC032D7ED10D4800780128DB
:103920000DD11248C08810B964201049C8800F48D2
:10393000C088401E0D49C880084601F005FA0448B9
:103940000078022858D10948007901281DD119E0D2
:1039500028000020500000202020202020202020AF
:10396000202020202020202000000000DA08002055
:10397000290000204C0000204A0000204E000020BA
:10398000520000200D20F8490871F7480079401EC8
:10399000F54908710846007904280BD008460079DB
:1039A000062807D008460079092803D00846007980
:1039B0000B2807D1EC48C0781E281ADD0120EA49FF
:1039C000C87016E0E8480079022812D1E74800786C
:1039D000012807D1E448C0781D280ADD0120E2490A
:1039E000C87006E0E048C0781C2802DD0120DE49EE
:1039F000C870DD4801F0A8F9DD480078032848D1F7
:103A0000D948C078401ED849C870084600790128B6
:103A100019D00846007900E0CDE0032813D008460D
:103A2000007905280FD00846007907280BD00846F2
:103A30000079082807D0084600790A2803D00846EC
:103A400000790C2806D1C848C078F8B91F20C649AB
:103A5000C8701BE0C4480079022811D1C34800781F
:103A6000012806D1C048C07880B91D20BE49C87061
:103A70000CE0BD48C07848B91C20BB49C87005E0BF
:103A8000B948C07810B91E20B749C870B64801F0CF
:103A90005BF9B748007804280ED1B3484079012873
:103AA00002D10820B0494871AF484079401EAE4964
:103AB0004871084601F048F9AD48007805280DD155
:103AC000A948807810B91820A7498870A64880783E
:103AD000401EA5498870084601F036F9A4480078D0
:103AE00006280DD1A048407810B93C209E49487066
:103AF0009D484078401E9C494870084601F024F9D2
:103B00009B48007807280DD19748007810B93C20D1
:103B10009549087094480078401E934908700846FB
:103B200001F012F992480078082808D191480088DD
:103B3000002804DD8F480088401E8E4908808C488C
:103B4000007809280BD18C4800888A490988401AD6
:103B5000012804DD88480088401E87490880844881
:103B600000780A2808D185480088002804DD8348A9
:103B70000088401E814908807D4800780B2808D1C4
:103B80007F480088002804DD7D480088401E7C496D
:103B90000880774800780C280BD17A48008878494B
:103BA0000988401A012804DD76480088401E7549BE
:103BB0000880FFF78DFB042D04D100207249088096
:103BC000FFF77AF838BD2DE9FE4F002400260020CB
:103BD00002906E48006800287DD0142000F0C5FED9
:103BE0006BA16F4802F030FC002837D068A16C4808
:103BF00002F02AFC044603E0641C0A2000F0B5FE33
:103C000020783028F8DB20783928F5DC00250CE016
:103C1000207802A94855681CC5B2641C20780D287C
:103C200000D108E00A2000F0A0FE2078302802DB56
:103C300020783928ECDD00BF002002A9485502A8F1
:103C400002F014FC0646002E08DBB6F5967F05DC74
:103C500048490E80FFF73CFBFFF72EF851A1504872
:103C600002F0F2FB002839D04EA14D4802F0ECFBE7
:103C7000044603E0641C0A2000F077FE2078302818
:103C8000F8DB20783928F5DC00250CE0207802A943
:103C90004855681CC5B2641C20780D2800D108E086
:103CA0000A2000F062FE2078302802DB20783928D4
:103CB000ECDD00BF002002A9485502A802F0D6FBA7
:103CC0000646002E0ADBB6F5967F07DC2A490E80F1
:103CD000FFF7FEFA00E022E1FEF7EEFF35A13048E3
:103CE00002F0B2FBA0B333A12D4802F0ADFB0446B5
:103CF00003E0641C0A2000F038FE20783A28F8D14E
:103D0000641C00250CE0207802A94855681CC5B247
:103D1000641C20780D2800D108E00A2000F025FE60
:103D20002078302802DB20783928ECDD00BF002025
:103D300002A9485502A802F099FB0646002E07DBAF
:103D4000C82E05DC0D490E80FFF7C2FAFEF7B4FF5E
:103D50001BA1134802F078FB002878D018A1104866
:103D600002F072FB044635E0DA080020290000204A
:103D7000280000204A0000204C0000204E000020B7
:103D8000520000205000002046000020E4080020DF
:103D900073657448656172744D696E3A0000000085
:103DA0005C0D002073657448656172744D61783AEA
:103DB0000000000073657453706F324D696E3A00F5
:103DC00073657454656D704D696E3A00641C0A2009
:103DD00000F0CBFD20783028F8DB20783928F5DC9E
:103DE00000250CE0207802A94855681CC5B2641C67
:103DF00020782E2800D108E00A2000F0B6FD2078B7
:103E0000302802DB20783928ECDD00BF20782E280E
:103E100000D1641C2078302805DB2078392802DCAA
:103E2000207802A94855681CC5B2002002A948554F
:103E300002A802F01BFB0646002E08DBB6F57A7FCF
:103E400005DAFE490E80FFF743FAFEF735FFFCA1C5
:103E5000FE4802F0F9FAE8B3F9A1FC4802F0F4FADE
:103E6000044603E0641C0A2000F07FFD207830281F
:103E7000F8DB20783928F5DC00250CE0207802A951
:103E80004855681CC5B2641C20782E2800D108E073
:103E90000A2000F06AFD2078302802DB20783928DB
:103EA000ECDD00BF20782E2800D1641C207830285B
:103EB00005DB2078392802DC207802A94855681CE7
:103EC000C5B2002002A9485502A802F0CFFA064662
:103ED000002E00E009E008DBB6F57A7F05DADC4960
:103EE0000E80FFF7F5F9FEF7E7FEDAA1D74802F0FA
:103EF000ABFA68B10120DA490860502000F035FDC6
:103F00000020D849C1F8A401D7490880FEF7D4FEA3
:103F1000C821CE4802F08DFA0020D4490860D44868
:103F2000007801285DD10020D1490870D148B0F94E
:103F3000000002F0E2FB8246CF4902F02EFB8146F0
:103F400002F035FCCDE90001CC480268CC4801689C
:103F5000CCA002F081FFC4480188D6A002F07CFF0B
:103F6000D748007810B9D7A002F076FFD74800787C
:103F7000012836D10020D5490870C82000F0F5FC92
:103F8000D3480188D3A002F067FFD7480188D7A0A3
:103F900002F062FFDA480188DAA002F05DFFA7486C
:103FA000008802F0B3FB8246B34902F0F6FA81467C
:103FB00002F0FDFB07463A460B46D7A002F04CFF45
:103FC000A348008802F0A2FB8246AB4902F0E5FA62
:103FD000814602F0ECFB07463A460B46D3A002F0BE
:103FE0003BFFBDE8FE8F00F083FC4FF4A060FCF7C0
:103FF000ABF900F0F9F900F07BFA00F011FDC820F0
:1040000000F0B3FCFEF79BFE00F0FCFA01F0C5F8EF
:10401000CB4800F0C5FF642000F0A7FC00240AE0B4
:1040200004F10801CAB22107080E0023022100F0A2
:10403000A2FB601CC4B2082CF2DB4FF47A7000F0D3
:1040400094FC00F0DFFABE4800F001FF00F0DAFA5D
:1040500000240AE004F11001CAB22107080E01236E
:10406000042100F088FB601CC4B2022CF2DB0024A7
:104070000CE004F11201CAB2302101EB0411C8B204
:104080000123042100F077FB601CC4B2022CF0DB9A
:1040900000240CE004F11401CAB25F2101EB041109
:1040A000C8B20123042100F066FB601CC4B2022CDC
:1040B000F0DB0221702000F0E3FB01F0E7F84FF4A1
:1040C000165001F0D4FA01F0E8F902F073F840F26A
:1040D000CF21632002F042F860E09A48007808B9E6
:1040E000012000E0002097490870FEF7D5FB9648B4
:1040F000007800284FD1FEF736FDFEF740FEFEF7B0
:10410000B5FC6F480078002845D190480078002819
:1041100041D101208D4908704FF47A7000F025FCE0
:104120004FF47A7000F021FC00F06CFA00240AE0F1
:1041300004F11001CAB22107080E0123042100F086
:104140001AFB601CC4B2022CF2DB00240CE004F168
:104150001201CAB2302101EB0411C8B201230421BB
:1041600000F009FB601CC4B2022CF0DB00240CE060
:1041700004F11401CAB25F2101EB0411C8B201239A
:10418000042100F0F8FA601CC4B2022CF0DB02211A
:10419000702000F075FB0A2000F0E7FB9DE710B5EA
:1041A00001218807FEF75FF900282FD00121880739
:1041B000FEF76AF966480088401C65490880084691
:1041C0000088B0F5487F10DB0020088001202849D6
:1041D00008706048007840B139480078002804DD54
:1041E00037480078401E364908705B480088401CFC
:1041F0005949088008460088642807DB00200880A9
:104200002F48007818B9012015490860CEE01C48F5
:10421000006858B11A4800683349098888420CDAA6
:10422000174800682A490988884206DD1348006853
:1042300010B11248006891E094E0A1E05200002023
:1042400073657454656D704D61783A005C0D0020A3
:10425000500000207374657073436C6561720000D8
:10426000A48121420080214246000020E408002071
:10427000560000204800002000002041600000207F
:104280005C000020244865617274726174653A258F
:1042900064232C2453706F323A2564232C245465F4
:1042A0006D70657261747572653A25342E316623BE
:1042B0002C0000002453746570733A2564230000B9
:1042C0005800002066616C6C000000005A0000205D
:1042D0004A0000202473657448656172744D696EEC
:1042E0003A2564232C0000004C00002024736574E0
:1042F00048656172744D61783A2564232C00000092
:104300004E0000202473657453706F324D696E3A0D
:104310002564232C000000002473657454656D70BF
:104320004D696E3A25342E3166232C002473657452
:1043300054656D704D61783A25342E3166232C001A
:10434000DA08002054000020280000205900002036
:1043500066000020570000206800002014490988EA
:1043600088420DDD1348B0F90000134909888842DE
:1043700006DA1048B0F900001049098888420CDCC0
:104380000F480068C0430F49C1F8A4010E480078E7
:1043900040F001000C49087008E00B48007800F07C
:1043A000FE000949087000200549086010BD0000A2
:1043B0004E00002048000020500000205200002045
:1043C000A48121420080214255000020704700BF97
:1043D000FEE700BFFEE700BFFEE700BFFEE7704755
:1043E000704770477047000000B585B0012148054F
:1043F000FDF7E9F801210820FDF7D8F8C020ADF855
:10440000000003208DF802001C208DF8030069468F
:10441000F748FCF70DFCF748FCF758FD0020ADF815
:1044200008004BF6FF70ADF80A003020ADF80C0024
:104430004FF48060ADF80E000001ADF81000EE48BA
:1044400001900121EB48FCF7D8FD01A9E948FCF7F0
:1044500056FD05B000BD70B504460D4600BF4FF4D3
:104460000031E448FCF7F0FE0028F8D10121E148D2
:10447000FCF7E7FD00BFE149DE48FCF7C3FE00287A
:10448000F9D000227821DB48FCF731FE00BFDC497F
:10449000D848FCF7B7FE0028F9D02146D548FCF7EC
:1044A00020FE00BFD649891CD248FCF7ABFE00288D
:1044B000F8D02946CF48FCF714FE00BFD049891C2C
:1044C000CC48FCF79FFE0028F8D00121C948FCF732
:1044D000C4FD70BD10B5044621460020FFF7BBFFA8
:1044E00010BD10B5044621464020FFF7B4FF10BDB3
:1044F00010B5642000F039FAAE20FFF7EBFF202062
:10450000FFF7E8FF1020FFF7E5FFB020FFF7E2FF1D
:10451000C820FFF7DFFF0020FFF7DCFF1020FFF7C8
:10452000D9FF4020FFF7D6FF8120FFF7D3FFFF2000
:10453000FFF7D0FFA120FFF7CDFFA620FFF7CAFFAE
:10454000A820FFF7C7FF3F20FFF7C4FFA420FFF715
:10455000C1FFD320FFF7BEFF0020FFF7BBFFD52030
:10456000FFF7B8FFF020FFF7B5FFD920FFF7B2FF44
:104570002220FFF7AFFFDA20FFF7ACFF1220FFF792
:10458000A9FFDB20FFF7A6FF2020FFF7A3FF8D2068
:10459000FFF7A0FF1420FFF79DFFAF20FFF79AFF62
:1045A00010BD70B504460D4605F1B001C8B2FFF765
:1045B00091FF102141EA1410FFF78CFF04F00F0166
:1045C00041F00100FFF786FF70BD70B5064600247C
:1045D00015E004F1B001C8B2FFF77CFF0020FFF73F
:1045E00079FF1020FFF776FF002504E03046FFF743
:1045F00078FF681CC5B2802DF8DB601CC4B2082CA3
:10460000E7DB70BD10B50020FFF7DFFF10BD10B570
:104610008D20FFF75FFF1420FFF75CFFAF20FFF74F
:1046200059FF10BD10B58D20FFF754FF1020FFF784
:1046300051FFAE20FFF74EFF10BD2DE9F0470746B2
:104640000E4690469946DDF820A000240025A8F1EA
:104650002000C4B2B9F1020F3FD1782F02DD00274C
:10466000701CC6B231463846FFF79BFF002513E0A9
:10467000BAF1010F08D105EB0411624A515CC9433C
:10468000C8B2FFF72EFF05E005EB04115D4A505C50
:10469000FFF727FF681CC5B2082DE9DB701CC1B20B
:1046A0003846FFF77EFF002515E0BAF1010F09D16A
:1046B00005EB04110831534A515CC943C8B2FFF7F6
:1046C00010FF06E005EB041108314E4A505CFFF77D
:1046D00008FF681CC5B2082DE7DBBDE8F0872DE9AF
:1046E000F04706460F4690469A4600250024A1460C
:1046F000BAF1010F03D0BAF1020F39D100E037E06F
:1047000031E018F809002038C5B2782E02DD002605
:10471000781CC7B239463046FFF743FF002407E054
:1047200004EB0511374A505CFFF7DBFE601CC4B296
:10473000082CF5DB781CC1B23046FFF732FF0024AD
:1047400008E004EB051108312E4A505CFFF7C9FE62
:10475000601CC4B2082CF4DB06F10800C6B209F1F3
:10476000010000F0FF0918F809000028C9D100BFB6
:1047700000BFBDE8F0872DE9F04781460F4690461F
:104780001E4600254FEA481439464846FFF709FF00
:1047900000BF0FE0012E06D11B49095DC943C8B215
:1047A000FFF79FFE03E01849085DFFF79AFE641CBF
:1047B000681CC5B2102DEDDB781CC1B24846FFF76E
:1047C000F0FE00250FE0012E06D10F49095DC94317
:1047D000C8B2FFF786FE03E00B49085DFFF781FED4
:1047E000641C681CC5B2102DEDDBBDE8F08700002D
:1047F000000C014000540040801A06000100030034
:1048000082000700527700086A0000202DE9F05F5F
:1048100006460F4690461C46DDF828A04FF0000BD8
:10482000E11704EB5171C910A4EBC10131B9204665
:10483000E11704EB5171C1F3C70506E02046E1170B
:1048400004EB5171C910491CCDB23D4614E0294614
:104850003046FFF7A6FEB1460AE059460BF1010BC0
:104860001AF80100FFF73DFE09F1010000F0FF0911
:10487000C145F2DB681CC5B2A542E8DBBDE8F09F8C
:1048800070B586B006460D460024182212A168466F
:1048900001F0B6FD29463046FFF783FE00BF05E074
:1048A0001DF80400FFF71DFE601CC4B20C2CF7DBE2
:1048B000681CC1B23046FFF774FE002407E004F123
:1048C0000C011DF80100FFF70CFE601CC4B20C2C9B
:1048D000F5DB06B070BD0000102810C020101010CD
:1048E00020700000000000070810101010080400DD
:1048F00010B56FF00400FBF776FD424800684249AE
:10490000B0FBF1F0414908700846007800EB400127
:10491000C1EBC0104FF6FF7101EAC0003C490880AE
:1049200010BD0146394A12784A434FF0E0235A61DC
:1049300000229A611A46126942F001021A6100BF10
:104940004FF0E022106900F001021AB100F4803249
:10495000002AF5D04FF0E022126922F001024FF058
:10496000E0231A6100229A6170470146284A1288A2
:104970004A434FF0E0235A6100229A611A461269B5
:1049800042F001021A6100BF4FF0E0221069214A93
:10499000128B92B1204A1268521C1F4B1A601A46A1
:1049A000126847F230539A4207D900221A4B1A6014
:1049B0001A4A1268521C194B1A6000F001021AB10F
:1049C00000F48032002ADFD0144A1268B2F5966FE4
:1049D000DAD84FF0E022126922F001024FF0E02312
:1049E0001A6100229A61704730B50446002505E03F
:1049F0004FF47A70FFF7B9FF681CC5B2A542F7D330
:104A000030BD00000000002000127A00CC08002019
:104A1000CE08002040090020D0080020D408002043
:104A200008B501210C20FCF7C1FD01215848FCF715
:104A3000D0F94FF47040ADF8000048208DF8030025
:104A400069465448FCF7F4F84FF48070ADF8000064
:104A500048208DF8030069464F48FCF7E9F84FF409
:104A60000070ADF8000010208DF8030003208DF8D1
:104A7000020069464748FCF7DBF84FF400714548EF
:104A8000FCF785F908BD10B5044674B14FF48051A8
:104A90004048FCF760F940B14FF400413D48FCF755
:104AA0005AF910B101203D4908703C4800780028AF
:104AB0004BD04FF480513748FCF74DF9B8B14FF463
:104AC00000513448FCF747F988B14FF48041314830
:104AD000FCF741F958B14FF400412E48FCF73BF97F
:104AE00028B14FF480712C48FCF735F968BB4120A0
:104AF000FFF73BFF0020294908704FF480512548FB
:104B0000FCF729F908B9012010BD4FF400512148E4
:104B1000FCF721F908B90220F6E74FF480411D485F
:104B2000FCF719F908B90320EEE74FF400411948E2
:104B3000FCF711F908B90420E6E74FF48071164834
:104B4000FCF709F910BB0520DEE74FF4805111484E
:104B5000FCF701F9012819D141030E48FCF7FBF8D5
:104B6000012813D181030B48FCF7F5F801280DD17A
:104B7000C1030848FCF7EFF8012807D101020648F5
:104B8000FCF7E9F8012801D1044908700020BBE7CF
:104B900000023000000C014000080140D80800204D
:104BA00008B54FF48040ADF8000010208DF80300E8
:104BB00003208DF802006946F848FCF739F808BD73
:104BC00008B54FF48040ADF8000048208DF8030090
:104BD0006946F248FCF72CF808BD08B50121102001
:104BE000FCF7E4FC4FF46040ADF8000010208DF8B5
:104BF000030003208DF802006946E848FCF718F826
:104C00004FF46041E548FCF7C2F808BD70B50446B2
:104C10000025FFF7C5FF00BF20E04FF40051DF483B
:104C2000FCF7B5F804F0010028B14FF48041DB48EF
:104C3000FCF7ABF804E04FF48041D848FCF7A7F844
:104C40000220FFF76EFE4FF40051D448FCF79DF8A8
:104C50000220FFF766FE6410681CC5B2082DDCDB7D
:104C600070BD70B505460C464FF40041CB48FCF7CB
:104C70008EF84FF40051C948FCF789F80520FFF77A
:104C800050FE4FF40041C548FCF77FF80520FFF7C0
:104C900048FE2846FFF7BAFF2046FFF7B7FF4FF45C
:104CA0000041BE48FCF773F84FF40051BB48FCF7D5
:104CB0006EF870BD70B50646002500244FF4004123
:104CC000B648FCF764F84FF40051B448FCF75FF8BD
:104CD0000520FFF726FE4FF40041B048FCF755F8D9
:104CE0000520FFF71EFE3046FFF790FFFFF768FF35
:104CF00000BF1BE04FF40051A848FCF748F8022021
:104D0000FFF70FFE64104FF48041A448FCF723F82E
:104D1000012801D144F080044FF400519F48FCF772
:104D200034F80220FFF7FDFD681CC5B2082DE1DB59
:104D30004FF400519948FCF72AF84FF40041974886
:104D4000FCF725F8204670BD70B5044600218E2082
:104D5000FFF787FF20780A2190FBF1F201FB120197
:104D600020780A2290FBF2F001EB0010C5B2294630
:104D70008020FFF776FF60780A2190FBF1F201FBBB
:104D8000120160780A2290FBF2F001EB0010C5B22C
:104D900029468220FFF765FFA0780A2190FBF1F2F7
:104DA00001FB1201A0780A2290FBF2F001EB001047
:104DB000C5B229468420FFF754FFE0780A2190FB12
:104DC000F1F201FB1201E0780A2290FBF2F001EB14
:104DD0000010C5B229468620FFF743FF20790A213B
:104DE00090FBF1F201FB120120790A2290FBF2F014
:104DF00001EB0010C5B229468820FFF732FF607929
:104E00000A2190FBF1F201FB120160790A2290FB6A
:104E1000F2F001EB0010C5B229468A20FFF721FF0E
:104E2000E0880A2190FBF1F201FB1201E0880A22DE
:104E300090FBF2F001EB0010C5B229468C20FFF781
:104E400010FF80218E20FFF70CFF002070BD2DE9A0
:104E5000F04104468120FFF72DFF0546C01705EB02
:104E600010700011A5EB00178120FFF723FF064605
:104E7000C01706EB1070001100EB800007EB40003C
:104E800020708320FFF716FF0546C01705EB107052
:104E90000011A5EB00178320FFF70CFF0646C01793
:104EA00006EB1070001100EB800007EB4000607013
:104EB0008520FFF7FFFE0546C01705EB10700011B7
:104EC000A5EB00178520FFF7F5FE0646C01706EB99
:104ED0001070001100EB800007EB4000A0708720ED
:104EE000FFF7E8FE0546C01705EB10700011A5EBB3
:104EF00000178720FFF7DEFE0646C01706EB10708E
:104F0000001100EB800007EB4000E0708920FFF704
:104F1000D1FE0546C01705EB10700011A5EB001778
:104F20008920FFF7C7FE0646C01706EB1070001178
:104F300000EB800007EB400020718B20FFF7BAFEEA
:104F40000546C01705EB10700011A5EB00178B206C
:104F5000FFF7B0FE0646C01706EB1070001100EB1D
:104F6000800007EB400060718D20FFF7A3FE05462F
:104F7000C01705EB10700011A5EB00178D20FFF78F
:104F800099FE0646C01706EB1070001100EB80007A
:104F900007EB4000E0800020BDE8F08100100140F8
:104FA0002DE9F0410646FFF718FEC120FFF782FE0B
:104FB0000446C01704EB10700011A4EB0017C120C9
:104FC000FFF778FE0546C01705EB1070001100EBE7
:104FD000800007EB4000012802D10020BDE8F081ED
:104FE00000218E20FFF73DFE0121C020FFF739FE92
:104FF00080218E20FFF735FE3046FFF7A5FE00200A
:10500000ECE7000010B58E48006820F470408C4931
:1050100008600846006840F4405008600020894954
:10502000086040F2EE20FFF77CFC01208649C1F8C1
:10503000AC010F20FFF775FC10BD10B500248048AF
:10504000006820F470407E4908600846006840F41B
:105050000040086004E0601CC4B20120FFF761FC5E
:1050600078488038006808B1C82CF4DBC82C01DB14
:10507000012010BD002404E0601CC4B20120FFF731
:1050800050FC70488038006808B9F02CF4DBF02C34
:1050900001DB0120EDE70020EBE710B56848006870
:1050A00020F47040664908600846006840F44050AB
:1050B00008600020634908600220FFF732FC0120ED
:1050C0006149C1F8AC015E48006820F470405C4959
:1050D00008600846006840F4004008600C20FFF7B4
:1050E00020FC58488038006808B1012400E0002402
:1050F0003220FFF716FC204610BD70B500260125B2
:1051000008E0FFF7CAFF0446E00140EA6600C6B2C5
:10511000681CC5B2082DF4DD304670BD70B504467C
:105120004748006820F47040454908600846006818
:1051300040F440500860012520E004F001066410AE
:105140006EB100203F4908600220FFF7EAFB012012
:105150003D49C1F8AC013C20FFF7E3FB0CE0002027
:10516000384908603C20FFF7DCFB01203649C1F8D4
:10517000AC010220FFF7D5FB681CC5B2082DDCDDB1
:1051800070BD10B5FFF73EFFFFF757FFCC20FFF7CC
:10519000C5FF4420FFF7C2FF10BD08B50121042060
:1051A000FCF704FA4FF40060ADF8000010208DF811
:1051B000030003208DF8020069462148001FFBF719
:1051C00037FD4FF400611E48001FFBF7DEFDFFF7BF
:1051D00019FFFFF732FF08BD2DE9F84FFFF7D1FFA8
:1051E000072C08DDE043C4B26FEA0B0000F0FF0BB0
:1051F0004FF0000A01E04FF0010AA1464FEA0920F2
:105200000FFA80F909EB0B000FFA80F9484601F01C
:1052100074FA009001F0CBFA074600220B4B01F024
:10522000FAF9054601F0A4FA0FFA80F9BAF1000F75
:1052300002D04846BDE8F88FC9F1000000B2F9E796
:1052400004080140AC012142000021420000E43F7B
:1052500008B58020ADF8000003208DF80200102072
:105260008DF8030069467E48FBF7E2FC08BD08B5EF
:105270008020ADF8000003208DF8020048208DF852
:10528000030069467648FBF7D3FC08BD08B5012149
:105290000420FCF78BF9C020ADF8000010208DF839
:1052A000030003208DF8020069466D48FBF7C0FC3F
:1052B000C0216B48FBF769FD08BD10B5FFF7C8FFBB
:1052C0000120684908606849C1F898010520FFF786
:1052D00028FB0020634908600520FFF722FB00201F
:1052E0006149C1F8980110BD10B5FFF7B1FF00206A
:1052F0005C49091F08605C49C1F89C010520FFF763
:1053000010FB01205749091F08605749C1F89C014B
:105310000520FFF706FB10BD10B500205149091FFD
:105320000860FFF795FF00204F49C1F89C0102205B
:10533000FFF7F7FA01204B49091F08600520FFF726
:10534000F0FA00204849C1F8980110BD10B50020BE
:105350004449091F0860FFF77BFF01204249C1F85B
:105360009C010220FFF7DDFA01203E49091F086079
:105370000220FFF7D6FA00203B49C1F8980110BD82
:1053800010B50024FFF773FF012036490860FFF7CE
:10539000C8FA01203449C1F89801FFF7C2FA07E0C2
:1053A000601CC4B2FA2C03DDFFF79EFF012010BD84
:1053B0002C48803800680028F2D12A49091F08606B
:1053C00000BFF4E770B504460025FFF741FF002059
:1053D0002449091F086000BF14E0E0092149086062
:1053E0006006040E01202049C1F898010220FFF751
:1053F00098FA00201B49091F08600220FFF791FA64
:10540000681CC5B2082DE8DB70BD70B505460026E6
:105410000024FFF72CFF00BF17E000201149091FEF
:1054200008600220FFF77DFA01200F49C1F89801BA
:105430006006040E0B488038006808B1601CC4B2D6
:105440000120FFF76EFA701CC6B2082EE5DB15B915
:10545000FFF77CFF01E0FFF75FFF204670BD000013
:10546000000801409C0121420000214270B5054620
:105470000C46FFF722FFA620FFF7A4FFFFF780FFEF
:105480002846FFF79FFFFFF77BFF2046FFF79AFFB5
:10549000FFF776FFFFF728FF70BD10B50B21312015
:1054A000FFF7E4FF0B212C20FFF7E0FF08212D2060
:1054B000FFF7DCFF80212E20FFF7D8FF00211E2000
:1054C000FFF7D4FF00211F20FFF7D0FF0521202088
:1054D000FFF7CCFF10BD70B504460025FFF7EDFEC9
:1054E000A620FFF76FFFFFF74BFF05462046FFF7AB
:1054F00069FFFFF745FF0546FFF7DFFEA720FFF72F
:1055000061FFFFF73DFF05460020FFF77EFF0546E0
:10551000FFF7EAFE284670BD2DE9FC4105460E4620
:105520001746FFF7CAFEA620FFF74CFFFFF728FF3C
:105530003220FFF747FFFFF723FFFFF7BEFEA7204C
:10554000FFF740FFFFF71CFF00240EE0052C05D1FC
:105550000020FFF75AFF0DF8040004E00120FFF7D8
:1055600054FF0DF80400601CC4B2062CEEDBFFF7FC
:10557000BBFE9DF800009DF8011000EB012000B279
:1055800028809DF802009DF8031000EB012000B276
:1055900030809DF804009DF8051000EB012000B25A
:1055A0003880BDE8FC812DE9FE4304460D461646D1
:1055B0001F460020206028603060002F45D08046C4
:1055C00026E06A4601A902A8FFF7A6FFBDF9080078
:1055D00001F093F88146216800F055FF2060BDF985
:1055E000040001F08AF88146296800F04CFF286029
:1055F000BDF9000001F081F88146316800F043FFF9
:1056000030600520FFF7B1F908F1010000F0FF0854
:10561000B845D6DB384601F079F88146494620681E
:1056200000F0BBFF2060384601F070F88146494623
:10563000286800F0B2FF2860384601F067F881461C
:105640004946306800F0A9FF3060BDE8FE830000E5
:10565000014600BF704700BF624A128802F0400254
:10566000002AF9D0C2B25F4B1B1D1A80704710B5DB
:1056700086B00446012144F20500FBF797FF594824
:10568000FCF706FF4FF40070ADF8140003208DF80E
:10569000160018208DF8170005A95348FBF7C8FA23
:1056A0004FF48060ADF8140004208DF8170005A9B0
:1056B0004D48FBF7BDFA25208DF8000000208DF83D
:1056C000010001208DF802008DF803006846FAF70A
:1056D00040FE01940020ADF80800ADF80A00ADF8D6
:1056E0000C00ADF810000C20ADF80E0001A93D48EB
:1056F000FCF711FF01A93B48FCF70DFF012240F226
:1057000025513848FCF79FFF002240F224413548DC
:10571000FCF799FF01213348FCF789FF06B010BD63
:1057200010B540F225512F48FDF772F890B12F487F
:105730000068C82802D300202C4908602948FCF7DB
:10574000E7FFC1B2294802680068401C274B186077
:105750002748815408212348FDF744F8012803D144
:1057600008212048FDF74BF840F225511D48FDF770
:1057700079F810BD0BE000BF1A49098801F040011B
:105780000029F9D00178174A121D1180401C0178B8
:105790000029F0D17047FF2912D00BE000BF114A59
:1057A000128802F04002002AF9D002780D4B1B1D2E
:1057B0001A80401C0A1EA1F10103D9B2EED10FE0FC
:1057C0000BE000BF074A128802F04002002AF9D01D
:1057D0000278044B1B1D1A80401C0278002AF0D16D
:1057E000704700000038014000080140E408002034
:1057F0005C0D0020002001E0411CC8B21E28FBDB2C
:10580000704710B54FF480607F4908604000091F61
:105810000860FFF7EFFF4FF480607B49091F0860C5
:10582000FFF7E8FF10BD08B501210820FBF7BEFE19
:1058300003208DF8020014208DF803004FF400605F
:10584000ADF80000694670481438FBF7F1F94FF4E1
:105850008060ADF8000069466B481438FBF7E8F942
:10586000FFF7CFFF08BD10B54FF480606649091FF0
:10587000086040000860FFF7BDFF4FF48060624998
:105880000860FFF7B7FF4FF400605F490860FFF75B
:10589000B1FF10BD70B50446002524E004F080007F
:1058A00028B14FF480605849091F086003E04FF4A5
:1058B000806055490860FFF79DFF4FF40060524932
:1058C000091F0860FFF796FF4FF400604E4908601B
:1058D000072D02D14010091F08606006040EFFF773
:1058E00089FF681CC5B2082DD8DB70BD70B50024D7
:1058F000002518E06006040E4FF400604249091FBD
:105900000860FFF777FF40480C38006800F48060BB
:1059100008B1601CC4B24FF400603B490860FFF757
:1059200069FF681CC5B2082DE4DB204670BD10B5C8
:105930004FF480603449091F0860FFF75BFF4FF4A4
:1059400000603149091F0860FFF754FF2E480C38EA
:10595000006800F4806008B1012400E000244FF4E6
:10596000006029490860FFF745FF204610BD10B5CB
:105970004FF4806024490860FFF73CFF4FF400605B
:105980002149091F0860FFF735FF4FF400601E49E9
:105990000860FFF72FFF4FF480601B49091F086064
:1059A00010BD10B54FF480601749091F0860FFF75C
:1059B00021FF4FF400601449091F0860FFF71AFF28
:1059C0004FF4006010490860FFF714FF10BD70B578
:1059D00004460D480C38006800F4806088B10A481D
:1059E0000C38006800F4006058B1FFF73CFF204617
:1059F000FFF750FFFFF79BFF0546FFF702FF284622
:105A000070BD0120FCE70000140C014070B5054694
:105A10000C46FFF728FFAE20FFF73CFFFFF787FF9C
:105A200000B111E02846FFF735FFFFF780FF00B116
:105A30000AE02046FFF72EFFFFF779FF00B103E0F1
:105A4000FFF7DFFE012070BDFFF7DBFE0020FAE765
:105A500070B505460C46FFF706FFAE20FFF71AFFAC
:105A6000FFF765FF00B118E02846FFF713FFFFF7C7
:105A70005EFF00B111E0FFF7F6FEAF20FFF70AFF6F
:105A8000FFF755FF00B108E0FFF730FF2070FFF788
:105A900088FFFFF7B6FE012070BDFFF7B2FE0020C1
:105AA000FAE710B5C0210220FFF7B0FF08B90020C7
:105AB00010BD00210320FFF7A9FF08B90020F7E778
:105AC00000210420FFF7A2FF08B90020F0E7002121
:105AD0000520FFF79BFF08B90020E9E70021062019
